:0E00000080C0FECFFDCFF6C0FBCFFACFBDC053
:10000E00F8CFF7CFF6CFF5CFF4CFF3CFF2CFF1CFC6
:10001E00F0CFEFCFEECFEDCF0AD7233C90D7233CD6
:10002E00FAED6BBB075F183CCCEEF1BF4260653F4B
:10003E008351E93EA3017CBEA69B443D8FE4BABF2B
:10004E001F852B3F4F1E96BD3C4E113FCEAABFBF04
:10005E00C1A8E43E02000400252E326600252E3291
:10006E0066207C00485220090920207C200942523B
:10007E0000002D4E414E000080C001002D4E414E1D
:10008E0000494E46000004006801260004006C0181
:10009E002A000400A4012E000400A801320004006E
:1000AE00AC0136000400B0013A000400C8013E0065
:1000BE000400CC0142000400D00146000400D4012B
:1000CE004A000400D8014E000400DC015200040076
:1000DE00E00156000400E4015A000400E8015E004D
:1000EE0004000400620002001402860001001B02DC
:1000FE0088000000F894EE27ECBBF1E0FBBFEBBFED
:10010E00E5BFF8E1F1BDE1BD8DE0A2E0BB27ED93C7
:10011E008A95E9F780E094E0A0E6ED930197E9F780
:10012E00E4E9F0E085919591009761F0A591B59184
:10013E0005901590BF01F00105900D920197E1F722
:10014E00FB01F0CFEFE5EDBFE4E0EEBFC0E6D1E09E
:10015E005DC5E7B1E7B9E6B1E468E6B90895E7B180
:10016E00E07FA881EA2BE7B987E08A95F1F7369A06
:10017E00329BFECFE4B1F5B109CB0A921A926A9383
:10018E007A938A939A93AA93BA93EA93FA93EFB7D0
:10019E00EA93E0916801F091690160916A017091B2
:1001AE006B01A0916001B09161018091620190910B
:1001BE006301D3DCE0936001F0936101609362010F
:1001CE0070936301E0E0F0E0FDBDECBDE991EFBF9F
:1001DE00F991E991B991A991999189917991699141
:1001EE001990099018950A921A926A937A938A93A3
:1001FE009A93AA93BA93EA93FA93EFB7EA93E0919C
:10020E006C01F0916D0160916E0170916F01A09182
:10021E006401B091650180916601909167019DDC4A
:10022E00E0936401F093650160936601709367013A
:10023E00E0E0E4BDE991EFBFF991E991B991A9919F
:10024E009991899179916991199009901895E0E0A9
:10025E00E0937C01E0937D01E0937E01E0937F01CA
:10026E00F201A0E7B1E088DDEA0FFB1FFF93EF93E9
:10027E00F6DDA0E0B0E080E792E40DDDAF91BF9136
:10028E00E9DDF20131972F010024401450041CF4D3
:10029E00E2E0F0E02F01CC24DD24E0E0E093A201C7
:1002AE00E093A301E3E0F0E0CE16DF0674F5F6016D
:1002BE00A0E7B1E061DDAE0FBF1FC6DDDF01CB01F0
:1002CE00F3DDFCF4F601A0E7B1E056DDAE0FBF1F83
:1002DE00BBDDA0917C01B0917D0180917E0190915A
:1002EE007F013BDCE0937C01F0937D0160937E0106
:1002FE0070937F01A2EAB1E0ED91FD913196FE93EC
:10030E00EE93F60131966F01CDCFE091A201F091FF
:10031E00A301A0917C01B0917D0180917E0190910D
:10032E007F0135DDE0DBB7DC57C9E0E0E0939401F7
:10033E00E0939501E0939601E0939701F301A0E815
:10034E00B1E01ADDEA0FFB1FFF93EF9388DDA0E00B
:10035E00B0E080E792E49FDCAF91BF917BDDF301CB
:10036E0031973F010024601470041CF4E4E0F0E0C7
:10037E003F01CC24DD24E0E0E093A201E093A30151
:10038E00E5E0F0E0CE16DF0674F5F601A0E8B1E088
:10039E00F3DCAE0FBF1F58DDDF01CB0185DDFCF4B2
:1003AE00F601A0E8B1E0E8DCAE0FBF1F4DDDA09175
:1003BE009401B09195018091960190919701CDDBBA
:1003CE00E0939401F09395016093960170939701D9
:1003DE00A2EAB1E0ED91FD913196FE93EE93F60116
:1003EE0031966F01CDCFE091A201F091A301A091C2
:1003FE009401B09195018091960190919701C7DC7F
:10040E0072DB49DCE9C8A0916001B0916101809175
:10041E00620190916301E0E0F0E060EC7FE380DC4C
:10042E0009F008F44AC020DDE0E0F0E060E074E49A
:10043E0077DC08F43FC0082C092881F5E8E9F1E0E3
:10044E00FA93EA93E6E6F0E0FA93EA93E09160011C
:10045E00F091610160916201709163010FDDF7DE31
:10046E000DDD84E047D82896EAE0EA93E1E0EA93CE
:10047E00E6D8E8E9F1E0FA93EA932CD9E0E0F0E06F
:10048E00FDBDECBDE0936001E0936101E09362017C
:10049E00E0936301E1E0F0E04F010BC0E2E0F0E039
:1004AE00E815F90531F4E0E0F0E0FDBDECBD88247F
:1004BE00992403C0E2E0F0E04F018EC8A0916401E0
:1004CE00B09165018091660190916701EAE9F9E9C1
:1004DE0069E97EE325DC09F008F447C0C5DCE0E0FD
:1004EE00F0E06CE572EC1CDC09F008F43BC00A2C61
:1004FE000B2871F5E8E9F1E0FA93EA93EBE6F0E008
:10050E00FA93EA93E0916401F091650160916601BE
:10051E0070916701B3DC09DFB1DC84E0EBD728967C
:10052E00E0E0EA93E1E0EA938AD8E8E9F1E0FA93B1
:10053E00EA93D0D8E0E0E4BDE0936401E093650176
:10054E00E0936601E0936701E1E0F0E05F0109C02E
:10055E00E2E0F0E0EA15FB0521F4E0E0E4BDAA24B8
:10056E00BB2403C0E2E0F0E05F0136C8E0E0EA93AE
:10057E00F6DDA4EBB1E066277727B5DA6BDCE09108
:10058E00B401F091B5016091B6017091B701A091DF
:10059E00A401B091A5018091A6019091A7012DDB38
:1005AE00E093BC01F093BD016093BE017093BF0157
:1005BE00E093C001F093C1016093C2017093C30137
:1005CE00E091B401F091B5016091B6017091B7015F
:1005DE00E093B801F093B9016093BA017093BB0137
:1005EE00E0E0EA93BCDDA4EBB1E0662777277BDA87
:1005FE0031DCE091B401F091B5016091B6017091DA
:10060E00B701A091A401B091A5018091A60190918E
:10061E00A701F3DA7F936F93FF93EF93E091B80105
:10062E00F091B9016091BA017091BB01A091A8013E
:10063E00B091A9018091AA019091AB01DEDAAF9140
:10064E00BF918F919F9189DA7F936F93FF93EF9371
:10065E00E091C001F091C1016091C2017091C3019E
:10066E00A091AC01B091AD018091AE019091AF011E
:10067E00C4DAAF91BF918F919F9105DC67DAE09359
:10068E00BC01F093BD016093BE017093BF0108954C
:10069E00E091C001F091C1016091C2017091C3015E
:1006AE00E093C401F093C5016093C6017093C70136
:1006BE00E091BC01F091BD016091BE017091BF014E
:1006CE00E093C001F093C1016093C2017093C30126
:1006DE00E091B401F091B5016091B6017091B7014E
:1006EE00E093B801F093B9016093BA017093BB0126
:1006FE00E0E0EA9334DDA4EBB1E066277727F3D987
:10070E00A9DBE091B401F091B5016091B601709151
:10071E00B701A091A401B091A5018091A60190917D
:10072E00A7016BDA7F936F93FF93EF93E091B8017C
:10073E00F091B9016091BA017091BB01A091A8012D
:10074E00B091A9018091AA019091AB0156DAAF91B7
:10075E00BF918F919F9101DA7F936F93FF93EF93E8
:10076E00E091C001F091C1016091C2017091C3018D
:10077E00A091AC01B091AD018091AE019091AF010D
:10078E003CDAAF91BF918F919F917DDBDFD97F9343
:10079E006F93FF93EF93E091C401F091C5016091C7
:1007AE00C6017091C701A091B001B091B1018091C5
:1007BE00B2019091B30121DAAF91BF918F919F91C8
:1007CE0062DBC4D9E093BC01F093BD016093BE011E
:1007DE007093BF0153DB17DEE8E9F1E0FA93EA9379
:1007EE00E6E6F0E0FA93EA93E091BC01F091BD01E8
:1007FE006091BE017091BF0141DB84E07BD62896EB
:10080E00E8E9F1E0FA93EA93E6E6F0E0FA93EA9388
:10081E00E091B401F091B5016091B6017091B7010C
:10082E002DDB84E067D628960895E091EC01F091D7
:10083E00ED016091EE017091EF01A091CC01B091AC
:10084E00CD018091CE019091CF01D7D97F936F9337
:10085E00FF93EF93E091F001F091F1016091F201BD
:10086E007091F301A091D001B091D1018091D2018C
:10087E009091D301C2D9AF91BF918F919F916DD9B4
:10088E007F936F93FF93EF93E091FC01F091FD0145
:10089E006091FE017091FF01A091D401B091D5013C
:1008AE008091D6019091D701A8D9AF91BF918F9128
:1008BE009F91E9DA4BD97F936F93FF93EF93E0917A
:1008CE000002F09101026091020270910302A09168
:1008DE00D801B091D9018091DA019091DB018DD9C7
:1008EE00AF91BF918F919F91CEDA30D9E093F801FD
:1008FE00F093F9016093FA017093FB01E091EC0122
:10090E00F091ED016091EE017091EF01A091DC018B
:10091E00B091DD018091DE019091DF016ED97F9360
:10092E006F93FF93EF93E091F001F091F1016091DD
:10093E00F2017091F301A091E001B091E10180917B
:10094E00E2019091E30159D9AF91BF918F919F919F
:10095E0004D97F936F93FF93EF93E0910802F09188
:10096E00090260910A0270910B02A091E401B0910C
:10097E00E5018091E6019091E7013FD9AF91BF91DA
:10098E008F919F9180DAE2D87F936F93FF93EF93CD
:10099E00E0910C02F0910D0260910E0270910F0227
:1009AE00A091E801B091E9018091EA019091EB01EB
:1009BE0024D9AF91BF918F919F9165DAC7D8E093FB
:1009CE000402F093050260930602709307020895E5
:1009DE00E0E0EA93C4DBACEEB1E06627772783D87C
:1009EE0039DAE091EC01F091ED016091EE01709138
:1009FE00EF01A091CC01B091CD018091CE019091EB
:100A0E00CF01FBD8E093F801F093F9016093FA015E
:100A1E007093FB01E091EC01F091ED016091EE011C
:100A2E007091EF01A091DC01B091DD018091DE01AA
:100A3E009091DF01E2D8E0930402F09305026093F7
:100A4E00060270930702E091EC01F091ED016091C6
:100A5E00EE017091EF01E093F001F093F1016093DC
:100A6E00F2017093F301E0E0EA9379DBACEEB1E0D2
:100A7E006627772738D8EED9E091F801F091F90181
:100A8E006091FA017091FB01E093FC01F093FD017E
:100A9E006093FE017093FF01E0910402F091050254
:100AAE006091060270910702E0930802F09309022A
:100ABE0060930A0270930B02B8DE0895E091F00184
:100ACE00F091F1016091F2017091F301E093F40164
:100ADE00F093F5016093F6017093F701E091EC014C
:100AEE00F091ED016091EE017091EF01E093F00154
:100AFE00F093F1016093F2017093F301E0E0EA9359
:100B0E002EDBACEEB1E066277727EDD7A3D9E091C7
:100B1E00FC01F091FD016091FE017091FF01E093E7
:100B2E000002F09301026093020270930302E091BF
:100B3E00F801F091F9016091FA017091FB01E093D7
:100B4E00FC01F093FD016093FE017093FF016DDED9
:100B5E00E0910402F0910502609106027091070285
:100B6E00A091F801B091F9018091FA019091FB01E9
:100B7E00F4D77F936F93FF93EF93E091C801F091B9
:100B8E00C9016091CA017091CB01A091EC01B091A5
:100B9E00ED018091EE019091EF012FD8AF91BF91B1
:100BAE008F919F91DAD7E0931002F0931102609328
:100BBE0012027093130262D981DC0895EFEFE7BB46
:100BCE00E0E0E8BBE4BBEFEFE5BBE1BBE0E0E2BB9E
:100BDE00E9B7E061E9BFE2E0EEBDE4ECF9E0FBBDB0
:100BEE00EABDE9B7E068E9BFE5E0E5BDECE9E3BDE4
:100BFE007894479AAEDAE0E1EA938AD5E2E7F0E03C
:100C0E00FA93EA9374D5B2DCE3DE0895D7DF40DDC4
:100C1E0055DFFDCFFFCF52D9AA81BB81129610D9D5
:100C2E00309749F1AA81BB8114960AD98F0130976A
:100C3E0061F00230E0E01E07E8F0F80131978F0115
:100C4E00AA81BB811496ED93FC93AA81BB81129667
:100C5E00ED91FD913196FE93EE933197AC81A08389
:100C6E00AA81BB81EDD8FF232AF0ED91FD9131963B
:100C7E00FE93EE9306C0AA81BB81EFEFFFEFED93DB
:100C8E00FC9323D9259608952497E0E0E883E98321
:100C9E00E0E8EA83EFE3EB830FD9EE85FF85EF3FC4
:100CAE00AFEFFA0751F4E885F985FA93EA93E0E895
:100CBE00F0E0FA93EA936CD52DC1EF3FAFE7FA0758
:100CCE0051F4E885F985FA93EA93E1E8F0E0FA93B6
:100CDE00EA935ED51FC1AB85A73010F0E6E0EB8737
:100CEE001B85E12F1150E03071F0AC81BD818E81FA
:100CFE009F81E0E0F0E060E271E47FD7EC83FD835A
:100D0E006E837F83EECFEC85FD856E857F85C8D89B
:100D1E0079F430E0AC81BD818E819F81E0E0F0E01E
:100D2E0060E271E46AD7EC83FD836E837F8373C0C8
:100D3E003B85EC81FD816E817F81AC85BD858E8585
:100D4E009F85EED709F008F423C0AC81BD818E815A
:100D5E009F81E0E0F0E060E271E44FD7EC83FD8329
:100D6E006E837F83EC81FD816E817F81AC85BD8535
:100D7E008E859F85D5D758F0EDECFCEC6CEC7DE3C1
:100D8E003CD7EC87FD876E877F873F5FEBCF22C016
:100D9E00EC81FD816E817F81AC85BD858E859F85C1
:100DAE00BFD758F4E0E0F0E060E271E426D7EC87BC
:100DBE00FD876E877F873150EBCFAC81BD818E81F1
:100DCE009F81E0E0F0E060E271E417D7EC83FD83F1
:100DDE006E837F83EC85FD856E857F85A0E0B0E018
:100DEE0080E09FE3BAD6EC87FD876E877F87EC8124
:100DFE00FD816E817F81AC85BD858E859F8590D767
:100E0E0050F0EDECFCEC6CEC7DE3F7D6EC87FD8757
:100E1E006E877F873F5F10E0EB85E11708F446C0D1
:100E2E00AC81BD818E819F81EDECFCEC6CEC7DE3A1
:100E3E00E4D6A0E0B0E080E09FE38FD61FD8BED30B
:100E4E00EC83FD836E837F83AC85BD858E859F8508
:100E5E0022D710D60E2FA885B9851196A887B987E7
:100E6E001197E02FE05DEC93E02FFF2766277727A1
:100E7E003AD6AC81BD818E819F81BFD6AC85BD85B2
:100E8E008E859F8500D862D6EC87FD876E877F871B
:100E9E00E12F1F5FE03009F0BFCFA885B98511960D
:100EAE00A887B9871197EEE2EC93B6CFE885F9855E
:100EBE003196E887F9873197AA85A08330302CF4D4
:100ECE003195A885B985EDE203C0A885B985EBE219
:100EDE00EC93E885F9853196E887F9873196E887AE
:100EEE00F9873197BF01A32FEAE064D7E05DDB01FC
:100EFE00EC93E885F9853196E887F9873197BF013C
:100F0E00A32FEAE081D7E05DDB01EC93A885B985DC
:100F1E00E0E0EC93D8D760960895EF976197CAD723
:100F2E0010E0FE01E85AFF4F0190F081E02DE887B6
:100F3E00F987FE01EA5AFF4F0190F081E02DEE8312
:100F4E00FF83AE81BF81E0E0F0E0ED93FC93DE0124
:100F5E00A45ABF4FED91FD913196FE93EE933197CA
:100F6E00E4912E2FE03009F4BEC2E12FE03069F497
:100F7E00253211F411E008C02A93EF81F885FA9317
:100F8E00EA93EB85FC850995ADC2E130F1F425328B
:100F9E0049F42A93EF81F885FA93EA93EB85FC8561
:100FAE0009959FC212E0E0E0ED8B00E02D3211F4C6
:100FBE0001E098C22B3219F4EBE2ED8B93C2203292
:100FCE0019F4E0E2ED8B8EC202C0E23039F450E04B
:100FDE0013E0203311F4006885C202C0E33091F4AF
:100FEE00203310F02A3308F007C0AAE05A9F502D84
:100FFE00E22FE0535E0F76C240E02E3211F414E081
:10100E0071C20FC0E43099F4203310F02A3308F087
:10101E0008C00062AAE04A9F402DE22FE0534E0F17
:10102E0061C22C3619F4026015E05CC203C0E530D3
:10103E0009F058C2E22FE336B1F4FE01E65AFF4F33
:10104E000190F081E02D3497DE01A65ABF4FED934B
:10105E00FC93A481AA93EF81F885FA93EA93EB852A
:10106E00FC8509953EC2E53411F0E53609F403C05E
:10107E00E63609F066C0FE017696EE87FF87DE0142
:10108E00A65ABF4F0D90BC91A02DDED6EA87FB87E6
:10109E006C877D87FE01E65AFF4F0190F081E02DAF
:1010AE003497DE01A65ABF4FED93FC93AD85AA236C
:1010BE0022F0AD89AB3261F01FC0EA85FB856C85ED
:1010CE007D85A5D4EA87FB876C877D87EDE2ED8B66
:1010DE0007FF0AC0ED89EA93EF81F885FA93EA9348
:1010EE00EB85FC85099508C0EE85FF853196EE8768
:1010FE00FF873197AD89A08305FF46E0263661F460
:10110E00EA85FB856C857D85B9D64A93EB89FC898A
:10111E00FA93EA935DD30CC0EA85FB856C857D85D9
:10112E00ADD64A932A93EC89FD89FA93EA93ACDD06
:10113E00FE017696EE87FF87FA93EA9334D31E2F3D
:10114E0041C0E337D9F4FE01E65AFF4F0190F0811A
:10115E00E02D3497DE01A65ABF4FED93FC93DE01CE
:10116E00A65ABF4F0D90BC91A02D149669D6EE874E
:10117E00FF87FA93EA9317D31E2F1DC0E03739F578
:10118E00FE01E65AFF4F0190F081E02D3497DE010B
:10119E00A65ABF4FED93FC93DE01A65ABF4F0D909A
:1011AE00BC91A02D14964CD6EE87FF87FA93EA9346
:1011BE0004D31E2F08600F77403011F0411708F04E
:1011CE0001C0142F40E0E0E0EC8B30E0A4C0E43628
:1011DE0011F0E93611F4046002C0E537C1F4EAE01B
:1011EE00EC8B01FF0AC0E0E0FAEC6AE97BE3E88BE6
:1011FE00F98B6A8B7B8B1AE028C0E0E1F7E260E0A6
:10120E0070E0E88BF98B6A8B7B8B15E01EC0E8359E
:10121E0011F4086003C0E83709F063C1E0E1EC8B1C
:10122E0001FF0AC0E0E0F0E060E070E1E88BF98BCE
:10123E006A8B7B8B18E009C0E0E0F0E160E070E0C3
:10124E00E88BF98B6A8B7B8B14E0403011F00F77B3
:10125E0001C041E001FF15C0FE01E65AFF4F0190AB
:10126E00F081E02D3497DE01A65ABF4FED93FC932B
:10127E00DE01A65ABF4F0D90BC91A02D1496E4D559
:10128E002EC002FF16C0FE01E65AFF4F0190F081FC
:10129E00E02D3497DE01A65ABF4FED93FC93DE018D
:1012AE00A65ABF4F0D90BC91A02D1496C9D56FD5DF
:1012BE0016C0FE01E65AFF4F0190F081E02D3497E3
:1012CE00DE01A65ABF4FED93FC93DE01A65ABF4F27
:1012DE000D90BC91A02D1496B3D566277727EA877B
:1012EE00FB876C877D8702FF15C0AD85AA235AF454
:1012FE00EA85FB856C857D8537D5EA87FB876C870C
:10130E007D87EDE2ED8BED89E03019F01F5F4F5FC9
:10131E0001C00B7F342F00FD1AC0151710F43517BE
:10132E0008F015C007FF08C002FF04C00B7F2D890F
:10133E00115001C020E301C020E22A93EF81F8850D
:10134E00FA93EA93EB85FC8509955150E6CF141775
:10135E0040F5006102FF17C00B7FED89EA93FE0195
:10136E00E95AFF4F0190F081E02DFA93EA93FE01C6
:10137E00E55AFF4F0190F081E02D0995503009F0AC
:10138E00515011504150E0E3EA93EF81F885FA9302
:10139E00EA93EB85FC850995503009F05150415088
:1013AE00D6CF312FEC89E030E9F43030D1F003FFA5
:1013BE0006C0EE85FF852591EE87FF8705C0AE85B9
:1013CE00BF852D91AE87BF872A93EF81F885FA935B
:1013DE00EA93EB85FC850995503009F05150315058
:1013EE00E4CF70C0E889F9896A897B89AA85BB85B3
:1013FE008C859D85E4D42E2F2A3030F003FF02C059
:10140E00295C01C0295A01C0205D04FD32C0213380
:10141E0060F4A889B9898A899B89A130E0E0BE076A
:10142E00E0E08E07E0E09E0709F40BC0431740F49E
:10143E00531710F000FF01C027C020E207FF19C0AC
:10144E0020E3006102FF15C00B7FED89EA93FE01D8
:10145E00E95AFF4F0190F081E02DFA93EA93FE01D5
:10146E00E55AFF4F0190F081E02D0995503009F0BB
:10147E0051502A93EF81F885FA93EA93EB85FC8518
:10148E000995503009F051503150E889F9896A892F
:10149E007B89AA85BB858C859D85C2D4EA87FB870F
:1014AE006C877D87EC89A889B9898A899B89FF27F2
:1014BE006627772784D4E88BF98B6A8B7B8BF0D4E5
:1014CE0009F090CF00FF0DC0503059F05150E0E2BE
:1014DE00EA93EF81F885FA93EA93EB85FC850995FB
:1014EE00F3CF10E034CDAE81BF81AAD4EAD4EF960B
:1014FE006F960895FF92F82E2697DED4DE011C9685
:10150E002FD49ED4309719F4EFEFFFEF24C0DE01F5
:10151E00169626D48D01DE011C9622D491D4EE832C
:10152E00FF83E0E0E887E987DE011A9619D488D4B4
:10153E00FA93EA931A930A93E2E1F6E0FA93EA93A6
:10154E00FE013A96FA93EA93E8DC9F01AE81BF81E1
:10155E00E0E0EC93F901B7D42A96FF9008957B81D1
:10156E006A81F981E88177FB770F67FD7160972FAC
:10157E009E5781F078F0983190F4AA27BB278827E0
:10158E0008948795B795A7959A95D1F7EA23FB23EB
:10159E00682305C0E8947727EE27FF2766276F7725
:1015AE00769508F4606877F9A991B9918991999126
:1015BE00EA17FB076807790797FB089550D45ED4A6
:1015CE00CEDF57D411F44BD407C0EEF748D4A0E0C9
:1015DE00B0E080E89FE3BAD224960895E881E071E6
:1015EE0011F0C49A01C0C498E881E07211F0C59A56
:1015FE0001C0C598E881E07411F0C69A01C0C69882
:10160E00E881E07811F0C79A01C0C79881E08A9509
:10161E00F1F7C29A83E08A95F1F7C29883E08A9532
:10162E00F1F7B4C0E881EA93D9DFE881E295E88367
:10163E00E881EA93D3DF81E28A95F1F7A7C0E881CA
:10164E00F0E0EC5EFD4FE081A981EA0FEA93EADF5C
:10165E00E981E0931802E881E09319022296089539
:10166E00E2E0EA93DFDFE3E0F0E0FA93EA93C3D13E
:10167E00ECE0EA93D7DFE1E0EA93D4DFE3E0F0E0D9
:10168E00FA93EA93B8D1E0E0E0931902E0931802DE
:10169E000895A881AA3031F0E0911A02A0911802A3
:1016AE00AE1768F0E0E0EA93E0911902EF5FE09385
:1016BE001902EA93C4DFA881AA3009F467C0E09149
:1016CE001802EF5FE0931802C09AE881EA93AADF4E
:1016DE00C0985CC01A93A981BA81ED91A983BA838F
:1016EE001E2FE03019F01A93D4DFF5CF0EC01A93E7
:1016FE00E981FA813196E983FA833197E4911E2FBD
:10170E00E03019F01A93C5DFF3CF188123960895B0
:10171E00BC9ABD9ABE9ABF9ABA9AB89AB99AC2980A
:10172E00C098C198E881E0931A02E058E09316023F
:10173E00E881E054E0931702E4E1F0E0FA93EA93D3
:10174E005AD1E0E3EA934ADF83E48A95F1F7E0E3C6
:10175E00EA9344DF83E48A95F1F7E0E3EA933EDF10
:10176E0083E48A95F1F7E0E2EA9338DF83E48A9521
:10177E00F1F7E8E2EA9356DFE4E0EA9353DFE5E8B7
:10178E00EA9350DFE6E0EA934DDF6ADF2196089593
:10179E00E991F991A991B991CD0105900D92002091
:1017AE00E1F7FC010895A991B991EE27FF276D91FC
:1017BE00662311F03196FBCF0895AA27BB27E99136
:1017CE00F9910590002011F01196FBCFFD010895BF
:1017DE002497E0E0E883E983EA83EFE3EB836ED3BB
:1017EE00EB85FC85EF3FAFEFFA0751F4EE81FF81F9
:1017FE00FA93EA93EAE8F0E0FA93EA93C9DFF8C0C5
:10180E00EF3FAFE7FA0751F4EE81FF81FA93EA93C7
:10181E00EBE8F0E0FA93EA93BBDFEAC0AC85AA23CB
:10182E008AF4E985FA856B857C85F1D0E987FA879C
:10183E006B877C87AE81BF811196AE83BF83119774
:10184E00EDE2EC93A885A73010F0E6E0E887188566
:10185E00E12F1150E03071F0AA81BB818C819D8106
:10186E00EDECFCEC6CEC7DE3C8D1EA83FB836C837E
:10187E007D83EECFEA81FB816C817D81A985BA855E
:10188E008B859C856AD1E987FA876B877C8710E008
:10189E00E0E0F0E060E87FE3EA83FB836C837D8326
:1018AE00EA81FB816C817D81A985BA858B859C85BA
:1018BE0037D2D8F0AA81BB818C819D81E0E0F0E027
:1018CE0060E271E49AD1EA83FB836C837D831F5FB0
:1018DE00173250F0EE81FF81FA93EA93EFE8F0E0D1
:1018EE00FA93EA9355DF84C0DBCF103049F4AE8112
:1018FE00BF811196AE83BF831197E0E3EC933DC099
:10190E00E12F1150E03009F438C0AA81BB818C81DF
:10191E009D81EDECFCEC6CEC7DE36FD1A0E0B0E0D2
:10192E0080E09FE31AD1AAD249DEEA83FB836C835F
:10193E007D83A985BA858B859C85ADD19BD00E2FD5
:10194E00AE81BF811196AE83BF831197E02FE05D0C
:10195E00EC93E02FF0E0AA81BB818C819D8117D2A0
:10196E00C2D04BD1A985BA858B859C858CD2EED001
:10197E00E987FA876B877C87C3CFE885E030A1F1D2
:10198E00AE81BF811196AE83BF831197EEE2EC93C9
:10199E00E885E150E887EF5F39F1A985BA858B8537
:1019AE009C85E0E0F0E060E271E427D1E987FA87F8
:1019BE006B877C875FD00E2FAE81BF811196AE8371
:1019CE00BF831197E02FE05DEC93E02FF0E0A98547
:1019DE00BA858B859C85DBD186D055D2B7D0E98769
:1019EE00FA876B877C87D4CFAE81BF81E0E0EC9322
:1019FE006CD22D960895E991F991309639F084EFD5
:101A0E0091E00197F1F7A8953197C9F708953097AE
:101A1E006040704009F070580895552342F45038D4
:101A2E0011F4E0FF04C03196691F791F6BF050E886
:101A3E00572711F45F93CFC05F3F31F0660F000C54
:101A4E0057956795752F08955F9300200AF0CFC0C4
:101A5E00C8C050E8192E1522880F991F9527550FCB
:101A6E00879550E8072E0522660F771F7527550FAD
:101A7E0067950895689401C0E8945F93F2DF70381B
:101A8E0018F07F3F08F4A7C056E1571BAAF45195F2
:101A9E0058300EF4593030F0EFEFFFEF6FEF7FE775
:101AAE0077F91AC077275523B9F0EE0FFF1F661F7F
:101ABE00771F5A95D1F710C07727583028F0EF2F9F
:101ACE00F62F672F5850F9CF552331F0769567953D
:101ADE00F795E7955A95D1F700200AF445D15F9115
:101AEE000895689401C0E894309760407040B1F05A
:101AFE00002426F0772312F4009436D1172E7EE1BF
:101B0E00112032F07A95EE0FFF1F661F111CF9CFD0
:101B1E00EF2FF62F612D5F938ADF5F9108954F931C
:101B2E00AF01FD01DA01AB01BC01CA01402D012C50
:101B3E00142E4F910895EA0FFB1F681F0895E0952C
:101B4E00F0956095EF5FFF4F6F4F08955F9381DFC4
:101B5E00903871F150E8152604C05F937ADF903803
:101B6E0039F1703821F1572F591B2BF112F4D7DFB1
:101B7E00FACF583118F0AA27BB278827583028F0FB
:101B8E00AB2FB82F88275850F9CF552329F08695BB
:101B9E00B795A7955A95D9F7502D512572F0CBDFF1
:101BAE0038F46795F795E795739513F420C0B7DF72
:101BBE003EDF5F910895D8F7FBCFEA1BFB0B680B56
:101BCE0051F010F40094BBDF662392F3EE0FFF1F6B
:101BDE00661F7A95CBF7EE27FF27662777275F914B
:101BEE000895EFEFFFEF6FE77FEF5F910895EFEF4F
:101BFE00FFEF6FE77FE75F9108955F932ADF7038FD
:101C0E0051F3903841F301240894791F23F41CF307
:101C1E0000203AF3ECCF0F921F932F933F934F93E5
:101C2E00112722279927689FA0018F9F302D410DE4
:101C3E00591F6B9F300D411D591F8E9F27D0BF9F7F
:101C4E0025D06A9F23D0BE9F1DD0AF9F1BD0AE9FC5
:101C5E00110D291F391F491F591FE32FF42F652F0F
:101C6E00522F4F913F912F911F910F9066232AF083
:101C7E00550FEE1FFF1F661F02C073954BF2CDDE90
:101C8E005F910895100D211D391F02C0200D311DC9
:101C9E00491F591F08955F93DCDE703821F411201F
:101CAE000AF49FCFA4CF903809F495CF012408945D
:101CBE00970B1BF4D4F30020F3CF792F1F932F93A0
:101CCE003F934F931124112722273327442755275B
:101CDE0090E2AE17BF078607410730F0AE1BBF0B71
:101CEE00860B410B089401C08894551F221F331F89
:101CFE00111CAA1FBB1F881F441F9A9551F7F9018B
:101D0E00612D4F913F912F911F91662332F0550F08
:101D1E00EE1FFF1F661F7A9543F27FDE5F910895D7
:101D2E0099239AF0772342F0971748F029F4AE17CB
:101D3E00BF07860720F031F0989488940895989400
:101D4E00089408951894889408957723C2F79717E6
:101D5E0098F3A9F7EA17FB07680788F399F3ECCF16
:101D6E000024AF0DB01D0895F09560957095E19526
:101D7E00FF4F6F4F7F4F0895EE0FFF1FEE0FFF1FA8
:101D8E000895FE2FFF0FFF0B6F2F7F2F08956F2FDC
:101D9E00660F660B762F0895002498E0AA0F001C9C
:101DAE000E1A10F40E0E01C0A1609A95B9F7EA2F23
:101DBE00A02D089539D0F0DF0EF4E19508953F93EC
:101DCE004F935F93002411244427552730E2AA0F26
:101DDE00BB1F881F991F001C111C441F551F0E1A74
:101DEE001F0A460B570B28F40E0E1F1E461F571FB9
:101DFE0001C0A1603A9559F7FD01BC01D001CA019D
:101E0E005F914F913F910895E894A7FF02C0A1956D
:101E1E006894E7FDE195C0DFEA2F0EF4E195089591
:101E2E00CEDFFD01BC010895E894E7FF02C0E19505
:101E3E006894A7FF04C0A19500F8039400FA0895D2
:101E4E00ED91FC9111970895ED91FD916D917C911D
:101E5E0013970895ED93FD936D937C930895E88108
:101E6E00F9816A817B810895A881B9818A819B81DC
:101E7E000895E883F9836A837B8308957A936A933E
:101E8E00FA93EA930895182E862F612D192E972F07
:101E9E00712D1B2EBF2FF12D1A2EAE2FE12D089571
:101EAE00309760407040089500240A160B0608060D
:101EBE00090608955A934A933A932A931A930A93CA
:101ECE0008955D814C813B812A8119810881089595
:00000001FF
